{
  "_format": "hh-sol-artifact-1",
  "contractName": "Game",
  "sourceName": "contracts/Game.sol",
  "abi": [
    {
      "inputs": [
        {
          "internalType": "uint256",
          "name": "_maxTokensAllowed",
          "type": "uint256"
        },
        {
          "internalType": "address",
          "name": "_tokenAddress",
          "type": "address"
        }
      ],
      "stateMutability": "nonpayable",
      "type": "constructor"
    },
    {
      "anonymous": false,
      "inputs": [
        {
          "indexed": false,
          "internalType": "uint256",
          "name": "rand",
          "type": "uint256"
        }
      ],
      "name": "Result",
      "type": "event"
    },
    {
      "inputs": [
        {
          "internalType": "uint256",
          "name": "_bettingAmount",
          "type": "uint256"
        }
      ],
      "name": "betTokens",
      "outputs": [],
      "stateMutability": "nonpayable",
      "type": "function"
    },
    {
      "inputs": [
        {
          "internalType": "uint256",
          "name": "_bettingAmount",
          "type": "uint256"
        },
        {
          "internalType": "uint256",
          "name": "_choice",
          "type": "uint256"
        }
      ],
      "name": "executeGame",
      "outputs": [],
      "stateMutability": "nonpayable",
      "type": "function"
    },
    {
      "inputs": [],
      "name": "generateRandomNumber",
      "outputs": [
        {
          "internalType": "uint256",
          "name": "",
          "type": "uint256"
        }
      ],
      "stateMutability": "nonpayable",
      "type": "function"
    },
    {
      "inputs": [],
      "name": "getCount",
      "outputs": [
        {
          "internalType": "uint256",
          "name": "",
          "type": "uint256"
        },
        {
          "internalType": "uint256",
          "name": "",
          "type": "uint256"
        }
      ],
      "stateMutability": "view",
      "type": "function"
    },
    {
      "inputs": [
        {
          "internalType": "uint256",
          "name": "_bettingAmount",
          "type": "uint256"
        }
      ],
      "name": "hasEnoughBalance",
      "outputs": [],
      "stateMutability": "view",
      "type": "function"
    },
    {
      "inputs": [
        {
          "internalType": "uint256",
          "name": "_bettingAmount",
          "type": "uint256"
        }
      ],
      "name": "transferToPlayer",
      "outputs": [],
      "stateMutability": "payable",
      "type": "function"
    }
  ],
  "bytecode": "0x608060405234801561001057600080fd5b50604051610ae4380380610ae4833981810160405281019061003291906100ab565b8160008190555080600160006101000a81548173ffffffffffffffffffffffffffffffffffffffff021916908373ffffffffffffffffffffffffffffffffffffffff1602179055505050610151565b60008151905061009081610123565b92915050565b6000815190506100a58161013a565b92915050565b600080604083850312156100be57600080fd5b60006100cc85828601610096565b92505060206100dd85828601610081565b9150509250929050565b60006100f2826100f9565b9050919050565b600073ffffffffffffffffffffffffffffffffffffffff82169050919050565b6000819050919050565b61012c816100e7565b811461013757600080fd5b50565b61014381610119565b811461014e57600080fd5b50565b610984806101606000396000f3fe6080604052600436106100555760003560e01c806317cd80661461005a57806353897ba01461008357806369e5ee0b1461009f578063773a1154146100c85780638993dfc2146100f3578063a87d942c1461011c575b600080fd5b34801561006657600080fd5b50610081600480360381019061007c91906105a4565b610148565b005b61009d600480360381019061009891906105a4565b6101fd565b005b3480156100ab57600080fd5b506100c660048036038101906100c191906105f6565b61037a565b005b3480156100d457600080fd5b506100dd6103dd565b6040516100ea9190610751565b60405180910390f35b3480156100ff57600080fd5b5061011a600480360381019061011591906105a4565b610435565b005b34801561012857600080fd5b5061013161052b565b60405161013f92919061076c565b60405180910390f35b600160009054906101000a900473ffffffffffffffffffffffffffffffffffffffff1673ffffffffffffffffffffffffffffffffffffffff166323b872dd3330846040518463ffffffff1660e01b81526004016101a7939291906106d1565b602060405180830381600087803b1580156101c157600080fd5b505af11580156101d5573d6000803e3d6000fd5b505050506040513d601f19601f820116820180604052508101906101f9919061057b565b5050565b600160009054906101000a900473ffffffffffffffffffffffffffffffffffffffff1673ffffffffffffffffffffffffffffffffffffffff1663095ea7b33083600261024991906107a6565b6040518363ffffffff1660e01b8152600401610266929190610708565b602060405180830381600087803b15801561028057600080fd5b505af1158015610294573d6000803e3d6000fd5b505050506040513d601f19601f820116820180604052508101906102b8919061057b565b50600160009054906101000a900473ffffffffffffffffffffffffffffffffffffffff1673ffffffffffffffffffffffffffffffffffffffff166323b872dd303384600261030691906107a6565b6040518463ffffffff1660e01b8152600401610324939291906106d1565b602060405180830381600087803b15801561033e57600080fd5b505af1158015610352573d6000803e3d6000fd5b505050506040513d601f19601f82011682018060405250810190610376919061057b565b5050565b61038382610148565b600061038d6103dd565b9050818114156103a1576103a0836101fd565b5b7fa9bb0fa194e939eadb11be8d62dd4a16e0f5e89f37fb73fa7f0f8446f1abba61816040516103d09190610751565b60405180910390a1505050565b6000806002426103ed9190610891565b90506000811415610415576002600081548092919061040b90610848565b919050555061042e565b6003600081548092919061042890610848565b91905055505b8091505090565b6000600160009054906101000a900473ffffffffffffffffffffffffffffffffffffffff1673ffffffffffffffffffffffffffffffffffffffff166370a08231306040518263ffffffff1660e01b815260040161049291906106b6565b60206040518083038186803b1580156104aa57600080fd5b505afa1580156104be573d6000803e3d6000fd5b505050506040513d601f19601f820116820180604052508101906104e291906105cd565b905081811015610527576040517f08c379a000000000000000000000000000000000000000000000000000000000815260040161051e90610731565b60405180910390fd5b5050565b600080600254600354915091509091565b60008151905061054b81610920565b92915050565b60008135905061056081610937565b92915050565b60008151905061057581610937565b92915050565b60006020828403121561058d57600080fd5b600061059b8482850161053c565b91505092915050565b6000602082840312156105b657600080fd5b60006105c484828501610551565b91505092915050565b6000602082840312156105df57600080fd5b60006105ed84828501610566565b91505092915050565b6000806040838503121561060957600080fd5b600061061785828601610551565b925050602061062885828601610551565b9150509250929050565b61063b81610800565b82525050565b600061064e602783610795565b91507f536f7272792120576520646f6e277420686176652073756666696369656e742060008301527f746f6b656e7321000000000000000000000000000000000000000000000000006020830152604082019050919050565b6106b08161083e565b82525050565b60006020820190506106cb6000830184610632565b92915050565b60006060820190506106e66000830186610632565b6106f36020830185610632565b61070060408301846106a7565b949350505050565b600060408201905061071d6000830185610632565b61072a60208301846106a7565b9392505050565b6000602082019050818103600083015261074a81610641565b9050919050565b600060208201905061076660008301846106a7565b92915050565b600060408201905061078160008301856106a7565b61078e60208301846106a7565b9392505050565b600082825260208201905092915050565b60006107b18261083e565b91506107bc8361083e565b9250817fffffffffffffffffffffffffffffffffffffffffffffffffffffffffffffffff04831182151516156107f5576107f46108c2565b5b828202905092915050565b600061080b8261081e565b9050919050565b60008115159050919050565b600073ffffffffffffffffffffffffffffffffffffffff82169050919050565b6000819050919050565b60006108538261083e565b91507fffffffffffffffffffffffffffffffffffffffffffffffffffffffffffffffff821415610886576108856108c2565b5b600182019050919050565b600061089c8261083e565b91506108a78361083e565b9250826108b7576108b66108f1565b5b828206905092915050565b7f4e487b7100000000000000000000000000000000000000000000000000000000600052601160045260246000fd5b7f4e487b7100000000000000000000000000000000000000000000000000000000600052601260045260246000fd5b61092981610812565b811461093457600080fd5b50565b6109408161083e565b811461094b57600080fd5b5056fea2646970667358221220af380263a0947e38edc8ee7897db8468ec8a482bf1b06c421ba5ee471bc8f09e64736f6c63430008000033",
  "linkReferences": {},
  "deployedLinkReferences": {}
}